:100000000C9486060C94BE060C94BE060C94332CFD
:100010000C94BE060C94BE060C94BE060C94BE0650
:100020000C94BE060C94BE060C9437140C944E1817
:100030000C94AF250C94BE060C94BE060C94BE0620
:100040000C94BE060C94BE060C94BE060C94BE0620
:100050000C94BE060C9410150C94BE060C94BE06AF
:100060000C94BE060C94BE060C94BE060C94BE0600
:100070000C94BE060C94BE060C94BE060C94BE06F0
:100080000C94BE060C94BE060C94BE060C94BE06E0
:100090000C94BE060C94BE060C94BE060C94BE06D0
:1000A0000C94BE060C94BE060C94BE062B001400E5
:1000B0001A00080015001700E000040016000700F1
:1000C00009000A00E1001D001B00060019000500E0
:1000D000000000000000E30021522C002800130063
:1000E00012000C0018001C00340033000F000E003A
:1000F0000D000B00290038003700360010001100F9
:10010000000000000000E60022522A002B00000040
:100110000000520000000000E0000000500051000C
:100120004F000000E100000000000000000000009F
:10013000000000000000E30001002C002800000087
:1001400026002500240000000000270023002200D4
:10015000210000000000000020001F001E00000021
:10016000000000000000E60023522A002B001E02BF
:100170001F02200221022202E00000000000000015
:1001800000000000E100000000000000000000008E
:10019000000000000000E30023522C00280027028A
:1001A00026022502240223023500310030002F00F0
:1001B0002E002D003502310230022F022E022D02B8
:1001C000000000000000E60001002A003A003B00A9
:1001D0003C003D003E003F00E0000000AA00A800F7
:1001E000A9000000E1000000BC00AE00BB00000060
:1001F000000000000000E30001002C004500440066
:1002000043004200410040002800000000000000C0
:1002100000000000290000000000000000000000B5
:10022000000000000000E60001002A0000DA028160
:10023000FFD9F1DB20A4A62EAF00A0C0D30000A1FF
:10024000C8D30000AED580A81F408D142000000147
:100250000101010101010101020202020202020286
:100260000203030303030303030404040404040458
:10027000050505050506060606060707070707081C
:10028000080808090909090A0A0A0B0B0B0C0C0CCF
:100290000D0D0D0E0E0E0F0F0F1010111111121269
:1002A00013131414151516161717181819191A1AE6
:1002B0001B1B1C1D1D1E1E1F202021222223242447
:1002C000252626272829292A2B2C2D2D2E2F303183
:1002D0003232333435363738393A3B3C3D3E3F4095
:1002E0004142434445464748494A4C4D4E4F505180
:1002F0005354555658595A5B5D5E5F61626465663A
:1003000068696B6C6D6F7072737577787A7B7D7EC0
:100310008082838587888A8C8E8F91939596989A10
:100320009C9EA0A2A3A5A7A9ABADAFB1B3B5B7BA28
:10033000BCBEC0C2C4C6C9CBCDCFD1D4D6D8DBDDFC
:10034000DFE2E4E7E9EBEEF0F3F5F8FAFDFF00AFEA
:1003500000AE000000E000F8C0F8E0C0FC007E182D
:100360000080000280F000C080F8C0E070603C387F
:100370003C1C003F0C0F1F030701C300E08000E09E
:1003800080F880C0F7C76F7B3930008000C000C0A4
:10039000C2E000403830381E181E0F0C0707070354
:1003A000032121313018181C080C0E07060703C35F
:1003B00003014CCCC2C24149092B2A6A6E24240491
:1003C0009292B1F1F1F2E6A4A40404282828282886
:1003D0002828636F726E6500209495962020B4B52E
:1003E000B62020D4D5D62000209D9E9F2020BDBEC3
:1003F000BF2020DDDEDF2000209798992020B7B8AD
:10040000B92020D7D8D92000209A9B9C2020BABBA5
:10041000BC2020DADBDC2000202020202000A7A840
:1004200000AFB000C600CA00C800A5A600ADAE006F
:100430008788008F9000C500C900C700CB00858663
:10044000008D8E00ABAC00CFD000C600CA00C80043
:10045000A9AA00B1B2008B8C00CDCE00C500C900A6
:10046000C700CB00898A0091920020200053200011
:100470002020004320002020004E2000000000101B
:1004800000000000000000081C0800000000000040
:10049000000002000000000010000000000000004A
:1004A000200000000000000000020040E0400000CA
:1004B00000000000040000000080C080C080000038
:1004C00000000000E0008000F00000C0000000001C
:1004D0000000004000000000000001008100C0009A
:1004E000FE00FC00FF20FFF00FF000FF0000000006
:1004F0001000000000009000F80000F8FF10FF84DA
:10050000FF60FF36FF0FFF3F005F000580008000A7
:10051000C03800ECF000FB80FFF0FFEFFFE8FF03C6
:10052000FF0CFF00FF00030000F80080FF20FFD059
:10053000FFE0FEF8FFFCFFFF0FFF013FFF000F0091
:1005400001000300FE80FE00C0FFC4FBFFFEFFFFB2
:10055000FF3FFFFF07FF033F000FC0000000B80090
:10056000FF40BEF0FFF1FFFEFFFFFFFF1FFF670030
:10057000EF001F0000070000E000FFF0FF88FFC44D
:10058000FFF8FFFFFFFFFFFF8F7F0FFF0007FE0059
:100590000700000000F800C03FF8E7FFFFFFFF1F63
:1005A000FFFF1F3F01FF0B00FF000005000000E000
:1005B00000F86080FEE3FCFF1EFFFF23FF09FF2021
:1005C000003F0200000F004000C000FCE0FCF0FF14
:1005D000FF7FFCFF0FFF071F00010F000F0081705E
:1005E0000CF0800000E4F8E6703FCFFF1FFF48FFEB
:1005F0000F000700004360F8F0FE38FE00FC030027
:10060000C872CFFC00030F01E01CE003000F0000E4
:100610000000000000F806F900030007FF001012B8
:10062000C9F0CFB47F80E01E0140655EE00000F0BD
:100630000CF000807E018093FCC0000000000000F0
:1006400089182C46000721101080091331BFFF00C4
:10065000081AF70F0000444534BFB80010F008F442
:100660001811FC18FB0E10F804F810201809FF0CE4
:10067000EA1F286030F820C042332100050109023A
:10068000A10185020901A100050919012908150028
:10069000250195087501810205010930093115818F
:1006A000257F95027508810609381581257F9501FA
:1006B00075088106050C0A38021581257F9501759C
:1006C000088106C0C005010980A101850319012A1E
:1006D000B700150126B700950175108100C0050C03
:1006E0000901A101850419012AA002150126A00211
:1006F000950175108100C005010906A101050719C2
:10070000E029E7150025019508750181029501751D
:100710000881010507190029FF150026FF0095062D
:1007200075088100050819012905150025019505A1
:1007300075019102950175039101C009023B000208
:100740000100A0FA090400000103010100092111C0
:10075000010001224400070581030800010904018A
:10076000000103000000092111010001227B0007A4
:1007700005820320000112010002000000081D8D07
:100780003A340001010200012403410075007200A7
:100790006F0072006100200043006F0072006E0065
:1007A000650020007200650076003100000018032B
:1007B000730070006C00690074006B0062002E0012
:1007C00063006F006D0000000403090400000000D6
:1007D00000003E5B4F5B3E003E6B4F6B3E001C3E9D
:1007E0007C3E1C00183C7E3C18001C577D571C00AA
:1007F0001C5E7F5E1C0000183C180000FFE7C3E78A
:10080000FF00001824180000FFE7DBE7FF00304876
:100810003A060E00262979292600407F05050700A3
:10082000407F05253F005A3CE73C5A007F3E1C1C98
:100830000800081C1C3E7F0014227F2214005F5F0A
:10084000005F5F0006097F017F00006689956A00EE
:1008500060606060600094A2FFA2940008047E04BF
:10086000080010207E20100008082A1C0800081C20
:100870002A0808001E10101010000C1E0C1E0C0080
:1008800030383E383000060E3E0E060000000000F4
:10089000000000005F000000000700070000147F58
:1008A000147F1400242A7F2A120023130864620094
:1008B000364956205000000807030000001C224162
:1008C00000000041221C00002A1C7F1C2A0008088E
:1008D0003E08080000807030000008080808080082
:1008E0000000606000002010080402003E514945ED
:1008F0003E0000427F4000007249494946002141C4
:10090000494D33001814127F100027454545390022
:100910003C4A4949310041211109070036494949FA
:100920003600464949291E0000001400000000401E
:1009300034000000000814224100141414141400A0
:100940000041221408000201590906003E415D5988
:100950004E007C1211127C007F49494936003E410D
:10096000414122007F4141413E007F4949494100C8
:100970007F09090901003E41415173007F080808C1
:100980007F0000417F4100002040413F01007F087F
:10099000142241007F40404040007F021C027F0043
:1009A0007F0408107F003E4141413E007F09090954
:1009B00006003E4151215E007F0919294600264963
:1009C0004949320003017F0103003F4040403F009E
:1009D0001F2040201F003F4038403F006314081490
:1009E00063000304780403006159494D4300007F0C
:1009F00041414100020408102000004141417F00B4
:100A00000402010204004040404040000003070887
:100A100000002054547840007F2844443800384473
:100A200044442800384444287F0038545454180063
:100A300000087E0902001824241C78007F080404A2
:100A4000780000447D4000002040403D00007F10C1
:100A50002844000000417F4000007C0478047800B6
:100A60007C08040478003844444438007C1824246A
:100A70001800182424187C007C080404080048543A
:100A80005454240004043F4424003C4040207C0093
:100A90001C2040201C003C4030403C0044281028D2
:100AA00044004C9090907C004464544C44000008F6
:100AB00036410000000077000000004136080000C9
:100AC0000201020402003C2623263C000000000034
:100AD00000000000C0E0F0F8F81800C0F0FCFEFFD5
:100AE000FFFFFFFFFFFF7E00000000F8042252E23C
:100AF000424242E252222222428202022222020484
:100B0000F80000F8040202824222428202020282BB
:100B10004222122242820204F80000F8FCDEAE1EDD
:100B2000BEBEBE1EAEDEDEDEBE7EFEFEDEDEFEFC37
:100B3000F80000F8FCFEFE7EBEDEBE7EFEFE00007B
:100B40000000000080804040202010100808101095
:100B50002020404080808080C0C0E0E0F0F0F8F8C5
:100B6000F0F0E0E0C0C08080808040402020101085
:100B700008081010202040408080808040C060A085
:100B800050B058A850B060A040C0808000F8FCFE73
:100B9000FFE000FFFFFFFFFFFF80FFFFFFFFFFFF02
:100BA000FFFFFF1F070100000000001F20444A470D
:100BB000424242474A44404040404142444440202F
:100BC0001F00001F20404140404040404140414103
:100BD0004F4848484F4141201F00001F3F7B757818
:100BE0007D7D7D78757B7F7F7F7F7E7D7B7B7F3F7B
:100BF0001F00001F3F7F7E7F7F7F7F7F7E7F000003
:100C00000000000088885D5D3E3E7C7CF8F87C7CBE
:100C10003E3E5D5D888888885555232347478F8FE2
:100C200047472323555588888888D5D5E2E2C4C430
:100C30008888C4C4E2E2D5D5888888885DD56BB63B
:100C40006DD6ADDA6DD66BB65DD5888800030F1F03
:100C50003F3F3F3F1F1F3F3F7F7F7F3F3F1F3F7F04
:100C60007F7F7F7C7878381C0F0004F80000F80440
:100C7000201F00001F20FCF80000F8043F1F0000A8
:100C80001F2004F80000F8FC201F00001F3FFCF8A4
:100C90000000F8FC3F1F00001F3FFE7EBEDEEEDEC0
:100CA000BE7EFEFCF8007E7E70777777707E7E3F9A
:100CB0001F00000000000000000000000000000015
:100CC00000000000000001010202040408080404FE
:100CD00002020101000000000101020204040808F0
:100CE00004040202010100000000010103030707E0
:100CF0000F0F0707030301010000000001010302B9
:100D000005060D0A050603020101000011241FBE9D
:100D1000CFEFDAE0DEBFCDBF04B603FE18C080918E
:100D2000A3069091A406A091A506B091A6068730CF
:100D3000904BA740B04B59F41092A3061092A40612
:100D40001092A5061092A606E0E0F8E3099512E0DD
:100D5000A0E0B1E0EEE0FDE502C005900D92AC39F7
:100D6000B107D9F726E0ACE9B2E001C01D92A33A81
:100D7000B207E1F70E94D6250C94312E0C940000A6
:100D800080919004837051F084608093900410925D
:100D90006C0180918F04816080938F040895482FA7
:100DA00020918B049091520457E0291302C080E0F7
:100DB000089530E0529FF001539FF00D1124ED5A39
:100DC000FB4F8181681306C08081481303C0858171
:100DD0008111EECF2F5F3F4F2770E7CF90919004A6
:100DE000937071F08093910460939204413808F0FD
:100DF00040E84093930480918F04816080938F0436
:100E00000895E8EDF0E080818E7F80831092E2000B
:100E10001092DA001092E100A0EEB0E08C918160B7
:100E20008C9380818F77808319BCA7EDB0E08C9183
:100E30008E7F8C9380818F7E808310923B040895F7
:100E40002091E4003091E50095E6A9012091EC00A5
:100E5000822F817020FF06C08091E80080FF06C0CD
:100E600080E008952091E80022FD1AC08091480496
:100E7000882389F0853089F08091EB0085FD0FC0D3
:100E80002091E4003091E50042175307F9F29150A8
:100E9000E1F684E0089582E0089583E0089581E01A
:100EA000089580914A0487FF13C08091E80082FF73
:100EB00006C08091E8008B778093E80004C08091A1
:100EC00048048111F2CF0895809148048823D9F312
:100ED0008091E80080FFF8CF8091E8008E77ECCF1A
:100EE000982F9093E900242F762F50E0891731F046
:100EF0007091EC002091ED005091F00021FD07C0B1
:100F00009F5F973071F78093E90081E008953091F9
:100F1000EB003E7F3093EB003091ED003D7F30934E
:100F2000ED003091EB0031603093EB007093EC00FA
:100F30002093ED005093F0002091EE0027FDE0CFCC
:100F400080E00895B0E0A0E0E8EAF7E00C946D2DB1
:100F5000C8EDD0E088818F7E8883E7EDF0E0808166
:100F60008160808384E082BF81E080933B0488813C
:100F70008E7F888302EE10E0F80110821092DA0072
:100F800081EEC82ED12CF601108288818F7788835C
:100F900088818068888388818F7D888319BC1092BE
:100FA000480410924904109247041092460490EEAF
:100FB000E92EF12CF70180818B7F8083888181600D
:100FC000888342E060E080E00E947007F601808143
:100FD0008E7F8083F801808181608083808188603A
:100FE0008083F70180818E7F808388818061888300
:100FF000CDB7DEB7E8E00C94892DFC018091500458
:101000009091510486179707A0F06115710529F496
:101010009091E8009E779093E80090E0611571054B
:1010200051F4911108C08091E80082FF34C080E043
:101030000895BC01F2CF809148048823C1F1853026
:10104000C1F18091E80083FD30C08091E80082FD0D
:10105000EACF8091E80080FFE1CF8091F3002091FA
:10106000F200382F6115710519F02830310558F05C
:1010700091E02830310509F090E02091E8002E77CA
:101080002093E800CBCF81918093F10061507109EA
:101090002F5F3F4FE7CF80914804882341F0853090
:1010A00041F08091E80083FFBECF81E0089582E0A7
:1010B000089583E00895089580913D0408952FB721
:1010C000F8946091370470913804809139049091BC
:1010D0003A042FBF08959C01FC0132969FEF80E0F7
:1010E0004191461751F09F3F19F4411101C0982FCB
:1010F0008F5F8630A9F79F3F09F40895290F311DAE
:1011000097FD3A95F90162830895A3E0B0E0EBE81A
:10111000F8E00C94732D2091340430913504281795
:101120003907A1F09093350480933404E0913204A0
:10113000F0913304309751F024E029839B838A8314
:101140000084F185E02DCE01019609952396E2E019
:101150000C948F2DA3E0B0E0E0EBF8E00C94732D3D
:10116000209130043091310428173907A1F0909371
:10117000310480933004E0913204F09133043097CD
:1011800051F023E029839B838A830084F185E02D3D
:10119000CE01019609952396E2E00C948F2D809163
:1011A0002E04882359F0E0913204F09133043097F3
:1011B00029F00190F081E02D0995089580E00895CF
:1011C0008091230480FD16C081FD16C082FD16C0EB
:1011D000809122048823A1F0883280F428E0829F45
:1011E000C001112468E270E00E94A62D862F672BB3
:1011F00039F0089582E0089584E0089588E0089524
:1012000081E008958091230480FD14C081FD14C005
:1012100082FD16C080912104882381F08E3180F4F4
:1012200020E5829FC00111246EE170E00E94A62D8E
:10123000862F089584E1089588E2089588E008954E
:1012400080E50895282F35EB2303C001112497FF73
:1012500004C080589109892F089580589F4FFBCF73
:10126000FC01680F791F8FEF91E32191822728E01D
:1012700030E087FF09C0880F892721503109C9F75D
:10128000E617F70791F70895880FF7CF90E06623E8
:10129000A1F086599E4FFC0120812F3F89F0E22F5B
:1012A000E295EF70F0E080A190E02F7002C095957C
:1012B00087952A95E2F78170089587599E4FEBCF65
:1012C00080E0089590E06623E9F086599E4FFC0186
:1012D00080818F3FB1F0E82FE295EF70F0E041A1FF
:1012E0008F7021E030E0B90102C0660F771F8A9548
:1012F000E2F7CB01962F9095942391A392A1892B8D
:1013000082A3089587599E4FE2CF90911B04E92F45
:10131000F0E09F012F5F3F4F2370332740911C0463
:101320004217130681F0E35EFB4F282F2F77808151
:101330008078822B60FB87F980839F5F9370909306
:101340001B0481E0089580E00895CF93DF932091FE
:10135000A1063091A2062B593440A901460F571F10
:101360004130524020F060E072E0621B730B40910C
:10137000990450919A04FC01C901620F731FC1E0E6
:10138000D0E08617970738F050939A044093990459
:10139000DF91CF9108952491DC01A556BB4F3C917C
:1013A000321781F02C939C01A5E036952795AA95DC
:1013B000E1F7DE0102C0AA0FBB1F2A95E2F79D01EB
:1013C0004A2B532B01963196DCCFFA01811101C0D3
:1013D000FB010995089530912F04311123C08B3101
:1013E00091051CF14B97FC01EE0FFF1FDF01A80FC9
:1013F000B91FA75BBC4F11963C911197361307C0DC
:101400003C91341304C012963C91321771F031E0D4
:1014100030934803E80FF91FE75BFC4F618340837B
:10142000228303C08B319105F4F208951092480392
:101430000895E0E9F4E0248130E1231B08F420E082
:10144000248380918F04816080938F040895E0E964
:10145000F4E0248130E1230F08F42FEF24838091FE
:101460008F04816080938F040895E0E9F4E0438164
:1014700020E1421B08F440E08181628190E00E94FB
:10148000EE060895E0E9F4E0438120E1420F08F41C
:101490004FEF8181628190E00E94EE060895E0E9BD
:1014A000F4E0628120E1621B08F460E08181438105
:1014B00090E00E94EE060895E0E9F4E0628120E108
:1014C000620F08F46FEF8181438190E00E94EE0685
:1014D0000895E0E9F4E08181438162818850990BAD
:1014E0000E94EE060895E0E9F4E0818190E04381F6
:1014F000628108960E94EE06089580919004869578
:101500008695815009F481E00E94C006089581E02B
:101510000E94C00608959BE0899F802D1124980F9A
:10152000973308F096E320912F04222321F09C3179
:1015300028F09BE108958B3108F48BE10895FF9228
:101540000F931F93CF93DF93182F062FF42ED0E025
:10155000C0E02F2D402F612FCE010E94EB09219674
:10156000C633D105B1F7CDB7DEB7E5E00C948C2DCD
:1015700080E00895FB01808180931C040895F89415
:10158000E82FE295EF70F0E031A1282F2F7081E075
:1015900090E001C0880F2A95EAF7982F9095932341
:1015A00091A392A1892B82A3789408950F931F93FE
:1015B00080912E04882329F00E945F081F910F91CB
:1015C00008950E945F08009118031091190320915B
:1015D0001A0330911B03600F711F821F931FEECF00
:1015E0009091260392FF10C041E0282F24712430EF
:1015F00009F040E031E0282F2871283009F030E070
:10160000431711F02CE0822793FF10C041E0282FF0
:101610002471243109F040E031E0282F287128316D
:1016200009F030E0431711F02CE0822730912703B6
:1016300030FF10C051E0282F2171213009F050E017
:1016400041E0282F2871283009F040E0541711F0AC
:1016500029E0822731FF10C041E0282F217121317C
:1016600009F040E031E0282F2871283109F030E0FE
:10167000431711F029E0822794FD877E0895823870
:101680009105B9F1B0F48133910509F47DC048F4B6
:101690008932910509F46DC08A32910509F47BC045
:1016A00008958533910509F45FC08933910509F1E7
:1016B0000895833E9105D9F138F4803E910529F1D2
:1016C000823E910579F10895863E9105D9F1873ED4
:1016D000910509F43EC0843E910541F52091270310
:1016E00021FF24C08091260384FD19C087EE90E07D
:1016F000089520912603237009F05AC020912703F2
:1017000023FF14C089E290E008952091260320FD74
:1017100038C03091270330FF09C024FF43C090E058
:1017200080E008952091260322FDF7CF08952091AF
:10173000260322FD3AC03091270330FD39C024FF33
:10174000F5CFEDCF2091260323FFF0CF24FDE7CF87
:10175000CDCF2091260323FD2EC03091270331FFEA
:10176000EECF84EE90E008952091260325FFDECF92
:10177000C9CF2091260325FD21C02091270323FFF7
:10178000D5CF89E390E0D2CF2091260326FFCECF9C
:101790008AE290E008952091260326FFC7CF81E3D7
:1017A00090E0089583EE90E0089582EE90E0089531
:1017B00080EE90E0089586EE90E0089585E390E055
:1017C0000895972F7830B8F46630A8F48430B0F4D8
:1017D00070E026E0929F600D711D1124FB0190E3E3
:1017E000899FE00DF11D1124EE0FFF1FE455FF4FFF
:1017F00085919491089580E090E0089581E0FCCF78
:101800001F93CF93DF930E943F0BEC01C11580E53E
:10181000D807F0F5C11580E4D80708F09CC0C03E99
:10182000D10520F5CD3CD10508F082C0C83AD105DC
:1018300078F4C53AD10508F073C0C130D10519F16B
:10184000209709F1C430D105F0F4D0E0C0E01BC00E
:10185000C33CD105D0F7C85AD0E0CC0FDD1FC75824
:10186000DE4F0990D881C02DD4640DC0C11580E22F
:10187000D80708F0D1C0C11581E0D80708F05AC0D8
:10188000C83ED10510F7CE01DF91CF911F91089589
:10189000C03682E5D80718F5C03482E5D80708F0CD
:1018A0006BC0C03282E5D80708F05FC0C11582E581
:1018B000D80708F497C02C2F2695269580E2289FFC
:1018C000900111248C2F8370C1E0D0E002C0CC0FB6
:1018D000DD1F8A95E2F7C22BD32BDD68D4CFC03A47
:1018E00082E5D80760F4C03882E5D80708F459C00B
:1018F000CF71D0E0DC2FCC27C46FD06AC4CFC03CFE
:1019000082E5D80708F462C0C03E82E5D80708F037
:101910009CCFDC2FCC27CC27DF71C06FD06AB3CF30
:10192000C55AD0E0CA58DE4FC881D0E0D064ABCFF2
:10193000D065A9CF8D2F0E94F00A182FCE019927CC
:101940000E943F0BC12FD0E0DC2FCC27CC27DF71CA
:10195000C82BD92B98CFCE0199270E943F0BCC27BB
:10196000DF70C82BD92BD06A8ECFCF71D0E0DC2F9F
:10197000CC27C16FD06A87CF2C2F2695269527704C
:1019800080E2289F900111248C2F8370C1E0D0E069
:1019900002C0CC0FDD1F8A95E2F7C22BD32BDC6887
:1019A00072CF2C2F26952695277080E2289F9001D4
:1019B00011248C2F8370C1E0D0E002C0CC0FDD1F5A
:1019C0008A95E2F7C22BD32BDA685DCF8C2F8F710B
:1019D0000E94F00AC82FD0E0DC2FCC27CC27DF7183
:1019E000D06251CF8C2F8F710E94F00A55E0D695AE
:1019F000C7955A95E1F7CF70D0E0DC2FCC27282F80
:101A000030E084FF05C044E0220F331F4A95E1F720
:101A1000C22BD32BD06937CF8D2F8F710E94F00A44
:101A2000182FCE0199270E943F0BC12FD0E0DC2F49
:101A3000CC27CC27DF71C82BD92BD2CF80959091A2
:101A4000EF0398239093EF03089580918B04909176
:101A50005204981301C008958F5F8770FACFB0E0E9
:101A6000A0E0E5E3FDE00C946C2D7C010091ED031A
:101A70001091EE038091EB039091EC03082B192B4E
:101A8000CFE0D0E0CC24C394D12CBC2EC6010C2EC8
:101A900002C0880F991F0A94E2F780239123892BB3
:101AA00049F4219790F7B12C8B2DCDB7DEB7E9E043
:101AB0000C94882DB7018C2F0E94E10B0E94000C22
:101AC000019779F3F1CFCF93DF93EC010E942F0DB3
:101AD000BE010E94E10B0E94000CDF91CF9108959E
:101AE000983078F5863068F5E82FF0E086E0989F2A
:101AF000E00DF11D11249E2F977083E0F695E79578
:101B00008A95E1F7EE0FFF1FEE0FFF1FE855FD4F1F
:101B100050E040E080E0219130E0092E02C036958F
:101B200027950A94E2F721703327042E01C0220F73
:101B30000A94EAF7822B4F5F5F4F4430510559F703
:101B4000089580E00895983098F5863088F5E82F5C
:101B5000F0E086E0989FE00DF11D11248E2F877034
:101B600041E001C0440F8A95EAF783E0F695E795D6
:101B70008A95E1F7EE0FFF1FEE0FFF1FE855FD4FAF
:101B800030E020E070E05191DF011197CB01022E8F
:101B900002C0969587950A94E2F781708195852712
:101BA000842385278C932F5F3F4F2430310559F7CD
:101BB00008959093EE038093ED03089521E030E0C3
:101BC00002C0220F331F8A95E2F72095309580914D
:101BD000ED039091EE03822393230E94D90D089583
:101BE0009091C702809589238093C702282F277080
:101BF00069F4891759F09091270392FF07C08695E1
:101C0000869586950E94DE0D1092C702089521E008
:101C100030E002C0220F331F8A95E2F78091ED0376
:101C20009091EE03822B932B0E94D90D08959093EF
:101C3000EC038093EB030895FC0124812223C1F07F
:101C4000808191810E94630D92959F70963091F0F2
:101C500058F4925F9F70923058F4803F19F030F43E
:101C6000883E30F481E008959A5FF4CF843FD1F349
:101C700080E00895883EB0F3813FD1F7F3CFA6E02E
:101C8000B0E0E5E4FEE00C94722D49835A8349816B
:101C90005A819923A1F0222391F0CA010E942F0DAD
:101CA000182F682F89819A810E94A30D69817A81FA
:101CB000812F0E94E10B2696E3E00C948E2DCA0141
:101CC0000E94700D182FF2CFCF93DF93C091A10621
:101CD000D091A2068A30C1F420919804CE018B598C
:101CE0009440622F70E00E944F2D281B822F66E0E7
:101CF0000E949A2DC82FC15018F4DF91CF910895FA
:101D000080E20E94640EF7CF8D30E9F4CB59D440C5
:101D100020919804622F70E0CE010E944F2D281B65
:101D2000822F9E01280F311D2115324018F080E0CE
:101D3000D0E0C0E0C80FD11DC556DB4FD093A2063E
:101D4000C093A106DACF96E0FE01ABE9B6E00190C0
:101D50000D929A95E1F7803E08F458C086E0FE01A6
:101D600011928A95E9F7C091A106D091A20646E0AA
:101D700050E0BE018BE996E00E94C92D9E012B59CF
:101D80003440892B41F1C90145E0969587954A95E4
:101D9000E1F741E050E0BA0102C0660F771F8A9573
:101DA000E2F7CB016091990470919A04862B972BEE
:101DB000B9016B5F7F4FE5E076956795EA95E1F7AE
:101DC00002C0440F551F6A95E2F7842B952B909320
:101DD0009A04809399042A5F3F4F40919804642F9E
:101DE00070E0C9010E944F2D481B463010F4240FAB
:101DF000311D211572E0370710F030E020E0255644
:101E00003B4F3093A2062093A10677CFF6E08F9F39
:101E1000B00111246453784F46E050E0CE010E9497
:101E2000C02DA1CFCF93DF93EC01FE0184918111EE
:101E300003C0DF91CF9108950E94640E2196F5CFE3
:101E40002091EF038091C802282B8091F003882312
:101E500081F0282B30E080EA92E0FC014191CF0133
:101E600041113F5FF2E0863A9F07B9F731111092B6
:101E7000F00320939E0248E050E069EC72E08EE9A6
:101E800092E00E94C92D892BA9F088E0EEE9F2E0EA
:101E9000A9ECB2E001900D928A95E1F7E09132044D
:101EA000F0913304309731F00280F381E02D8EE918
:101EB00092E009950895882321F00E941E0D0E944A
:101EC000200F0895882339F09091EF03982B909379
:101ED000EF030E94200F08950F931F93CF93DF937A
:101EE0008B01EA0190914804943061F58093E900F8
:101EF0008FEF9091E800815095FD06C095ED9A9581
:101F0000F1F700008111F5CF8091E80085FF1AC03C
:101F10000E942007811111C08091E80085FD06C054
:101F20008091E8008E778093E800F2CFF8018191EC
:101F30008F018093F100219779F78091E8008E77E7
:101F40008093E800DF91CF911F910F91089543E0B6
:101F500050E0BC0182E00E946C0F089546E050E022
:101F6000BC0182E00E946C0F0895CF93DF93EC01D7
:101F700048E050E0BC0181E00E946C0F88E0FE0167
:101F8000AEE3B4E001900D928A95E1F7DF91CF9135
:101F9000089581E08093E00080E28093D800109261
:101FA000C9008FE19EE40197F1F700C0000087E0CF
:101FB00090EBDC018093A3069093A406A093A50662
:101FC000B093A60688E19CE00FB6F894A89580939C
:101FD00060000FBE90936000FFCF8091480388237C
:101FE00041F1539A3BB1377F2BB128604FB7F8943A
:101FF00089E493E0FC015191CF0168E02BB9000026
:1020000000C057FF3BB9550F000000C000C000C022
:102010003BB900C06A9591F7F3E08B3E9F0751F7FB
:102020004FBF8FE594E00197F1F700C000001092D8
:1020300048030895B0E0A0E0E0E2F0E10C946B2DDD
:102040007C015B016A018091170301E010E08A3096
:1020500010F40AE010E0C1E0D0E0B501C701F601DC
:102060000995811104C021960C171D072CF4CDB7DA
:10207000DEB7EAE00C94872DCC9F9001CD9F300D08
:10208000300D112490E080E045E34A95F1F700001F
:10209000019682179307C1F7E0CFAB0124E630E049
:1020A000BC0188E70E94032B21E0892B09F020E086
:1020B000822F08958091170490911A04911103C002
:1020C00091E089270895882369F062E070E080E557
:1020D00093E00E944D10811103C080911704089570
:1020E0001092170480911704EBCFCF93C09117047F
:1020F00080911A048823D1F00E945F08605A7541CC
:102100008F4F9F4F609313047093140480931504B2
:1021100090931604C11108C062E070E08EE493E071
:102120000E944D10811105C0C09117048C2FCF91D2
:10213000089581E080931704F7CFB0E0A0E0E3EAD0
:10214000F0E10C94692D0E94D60A609340037093CD
:102150004103809342039093430330919004D32F23
:10216000D37019F0D32FD695D69520916C012130DC
:10217000D9F0222359F0223009F40AC1233009F49E
:1021800011C1CDB7DEB7ECE00C94852D10925F0144
:1021900060934403709345038093460390934703F1
:1021A00081E080936C01EDCF90915E0181E0D913C5
:1021B0000BC0832F837020915D0130E091E0821786
:1021C000130609F490E0892F81708093610180915A
:1021D000950490916001981739F08093600140E078
:1021E00060E080E00E949F0ADD2321F0D13061F0A1
:1021F00090E02BC090916101992339F140E060E0BB
:1022000080E00E949F0AF4CF80915F010E948B0AB8
:10221000982E092FC0909104D0909204E0919304DD
:10222000F0E0E25BFD4FD11025C0F4901F2DCF2DC3
:10223000C92CD12CC01608F492C080912F0491E0D3
:10224000882309F49EC00B3198F680915F0121E04C
:10225000280F20935F01911198C092E090936C0138
:1022600090916101911191C0DD2309F499C00E9400
:102270008B0A87CFED2CF12CC4918C2EEC2FF0E043
:1022800026E0C29EC00111242FEF30E0B9010E9468
:102290004F2D8C2D90E0880F991FA5E5A69FA001DA
:1022A000A79F500D1124841B950BC82ECC0CC80E73
:1022B000C9018E199F098E9FA0018F9F500D9E9F6F
:1022C000500D1124152FDC9CC0011124892F992752
:1022D000D901A81BB90BCD018E9FD0018F9FB00DE6
:1022E0009E9FB00D11245901AC18B108AE9C60013D
:1022F000AF9CD00CBE9CD00C1124CD2CDD242C190D
:102300003D092E9FC0012F9F900D3E9F900D1124DF
:10231000F92E62307105A1F050F46115710509F4D0
:1023200087CF6130710581F0F52E1B2F81CF64308E
:10233000710569F080F06630710509F479CFF4CF4A
:10234000FC2EC52F192F74CFFC2ECB2F71CFF52E5D
:102350001C2FC92F6DCFC52F182DFB2E69CFF6016D
:10236000E35AFD4F808190916001892331F0212F44
:102370004F2D6C2FC6010E94EB09BFEFCB1ADB0A71
:1023800059CF063308F461CF33CFD11170CFF9CED6
:10239000D0935E01832F837080935D010E94ED0FC7
:1023A00083E0FFCE80918F04882351F048E050E015
:1023B00068E170E080E994E00E94FD2D10928F04A6
:1023C000C0904403D0904503E0904603F09047034B
:1023D00080912E048823C1F02FB7F89460913704C0
:1023E000709138048091390490913A042FBF6C1990
:1023F0007D098E099F09603171058105910508F4F9
:10240000C0CE10926C01BDCE0E94D60AF0CF909142
:10241000270392FB222720F9281779F080FB92F9F5
:1024200090932703609126037091270384E090E046
:102430000E942B2E82E00E94F00D0895B0E0A0E0F3
:10244000E4E2F2E10C946E2D7901C82F880FDD0BC8
:1024500041155105A9F0FE0193E0EE0FFF1F9A957B
:10246000E1F7E050FF4F8181928183529D4F20819F
:1024700030E04217530708F49A01A9010E94D62DB3
:10248000CE010E94D92CD82E8823D1F00115110538
:10249000B9F083E0CC0FDD1F8A95E1F7FE01E05033
:1024A000FF4F438150E00417150708F4A801C050FE
:1024B000DF4F6C817D8163527D4FC7010E94D62D15
:1024C0008D2DCDB7DEB7E7E00C948A2DA4E0B0E007
:1024D000ECE6F2E10C94712D40910B0350910C034A
:1024E00060910D0370910E032FB7F894809137041B
:1024F00090913804A0913904B0913A042FBF841B05
:10250000950BA60BB70B11E084369105A105B1051B
:1025100018F10E94D60A6E5F7F4F8F4F9F4F6983DD
:102520007A838B839C8310E000E030E020E044E07D
:1025300050E0BE016F5F7F4F86E00E941E12182F91
:10254000882351F00E945F0860930B0370930C0383
:1025500080930D0390930E03812F2496E4E00C9456
:102560008D2D8F929F92AF92BF92EF92FF920F9319
:102570001F93CF937B01942FB901A801F7018080AD
:102580009180A280B380EFB7F89400913704109146
:1025900038042091390430913A04EFBF0819190921
:1025A0002A093B09043611052105310518F4C1E05B
:1025B000992381F010E000E030E020E00E941E123C
:1025C000C82F882339F00E945F08F7016083718368
:1025D000828393838C2FCF911F910F91FF90EF9067
:1025E000BF90AF909F908F900895A1E0B0E0EBEF87
:1025F000F2E10C94712D8091170489832091FA02E5
:1026000090E041E02817190609F440E001E010E0ED
:102610009E012F5F3F4F63E173E088E00E94B1129B
:102620002196E4E00C948D2DA9E0B0E0EAE1F3E11D
:102630000C94712D88E0E0E9F4E0DE011196019040
:102640000D928A95E1F7198649E050E061EF72E05A
:10265000CE0101960E94C92D41E0892B09F440E08A
:1026600009E010E09E012F5F3F4F6FE073E087E0CD
:102670000E94B1122996E4E00C948D2D0F931F93C4
:10268000CF93DF93EC0144E050E062EE72E00E94F1
:10269000C92D41E0892B09F440E004E010E09E01DF
:1026A00063E073E082E00E94B112DF91CF911F914D
:1026B0000F910895A1E0B0E0E0E6F3E10C94682DFD
:1026C000762E4A015901680101E010E09E012F5F5A
:1026D0003F4F50E040E070E060E00E941E12182F73
:1026E000882309F440C0F4014081518162817381E3
:1026F0002FB7F8948091370490913804A091390451
:10270000B0913A042FBF841B950BA60BB70B8436F0
:102710009105A105B10538F4B701C6010E94300941
:102720009981891701F18701950150E040E070E03F
:1027300060E0872D0E941E12B82EB701C6010E94CC
:10274000300911E09981981310E01B2139F00E94A3
:102750005F08F4016083718382839383812F2196C4
:10276000EDE00C94842DA701B601C5010E94D62D81
:10277000F5CFA6E0B0E0EFEBF3E10C946F2D86E02F
:10278000E82EF12C07EE12E09E012F5F3F4F47E04D
:1027900053E064E083E00E945A13F82E8823C9F0C6
:1027A0009091E8028091E702981318C010E000E0D1
:1027B00030E020E041E050E068EE72E085E00E9409
:1027C0001E1266E070E087EE92E00E94300980936E
:1027D000E6028F2D2696E6E00C948B2D292F30E013
:1027E000F901E352FD4F648521523D4FF901828585
:1027F0009F5F93709093E802661F6627661F8F772E
:102800000E948509CDCFA4E0B0E0E9E0F4E10C94AA
:102810006D2D6B0184E0E82EF12C0EED12E09E018F
:102820002F5F3F4F4FEF52E061E080E00E945A136C
:10283000882361F049815A816B817C814093FB023E
:102840005093FC026093FD027093FE024091FB02E4
:102850005091FC026091FD027091FE02F6014083EE
:102860005183628373832496E8E00C94892D1F9230
:102870000F920FB60F9211242F933F934F935F93B4
:102880006F937F938F939F93AF93BF93EF93FF9338
:102890008091E10082FF09C08091E20082FF05C0C3
:1028A0008091E1008B7F8093E1008091DA0080FFCE
:1028B00024C08091D80080FF20C08091DA008E7FF4
:1028C0008093DA008091D90080FF9DC080E189BDAE
:1028D00082E189BD09B400FEFDCF81E08093480408
:1028E00080913B04811109C00E9401070E94A20748
:1028F0008091E20084608093E2008091E10080FF9B
:1029000017C08091E20080FF13C08091E2008E7FAB
:102910008093E2008091E20080618093E2008091E8
:10292000D80080628093D80019BC85E08093480469
:102930008091E10084FF2BC08091E20084FF27C0DA
:1029400080E189BD82E189BD89B5982F917080FFB2
:10295000FBCF8091D8008F7D8093D8008091E100DB
:102960008F7E8093E1008091E2008F7E8093E20071
:102970008091E20081608093E20080914904882385
:1029800009F447C084E08093480480914804809112
:10299000E10083FF27C08091E20083FF23C0809184
:1029A000E100877F8093E10082E0809348041092E9
:1029B00049048091E1008E7F8093E1008091E200E4
:1029C0008E7F8093E2008091E20080618093E2003C
:1029D00042E060E080E00E9470078091F000886033
:1029E0008093F000FF91EF91BF91AF919F918F91F4
:1029F0007F916F915F914F913F912F910F900FBEFB
:102A00000F901F90189519BC1092480410923B0427
:102A100074CF8091E30087FD93E090934804B5CF95
:102A200078941F921FB61F9211248F939F93AF9398
:102A3000BF938091370490913804A0913904B091EC
:102A40003A040196A11DB11D809337049093380478
:102A5000A0933904B0933A04BF91AF919F918F91A5
:102A60001F901FBE1F9018959C014FB7F89480913E
:102A7000370490913804A0913904B0913A044FBFC3
:102A8000821B930B08952FB7F8948091370490918F
:102A90003804A0913904B0913A042FBF08950E94E0
:102AA00043159C0190912A0480912B04982B21F0CE
:102AB000309327042093260490912C0480912D04B8
:102AC000982B21F03093250420932404E0913204C4
:102AD000F0913304309749F082E080932804068017
:102AE000F781E02D88E294E009950895CF93109244
:102AF000EF03C6E0E0EAF2E0DF018C2F1D928A9539
:102B0000E9F790E080E00E94AA0890E080E00E944F
:102B100085081092C8020E94200FE8E2F4E0DF016D
:102B20001D92CA95E9F71092210410922204109286
:102B300023040E944F15CF910895AAE2B0E0E3EA82
:102B4000F5E10C94722D8AE494E02091F100FC01EF
:102B50002193CF01F4E082359F07B9F780914B04B0
:102B6000833009F470C0B8F4813009F447C0823072
:102B700009F4B1C08091E80083FF7EC280914A04CD
:102B800090914B049A3008F077C2E92FF0E0ED5CA9
:102B9000F14D0C94BA2D8A3009F48CC08B3009F4B5
:102BA0006FC0893039F780914A04813219F78091DA
:102BB0004E0490914F040297E8F68091E800877FD9
:102BC0008093E8008091E80082FF38C09091F30084
:102BD0008091F200029731F48091F100813011F080
:102BE000863021F48091F10080933D048091E800CB
:102BF0008B778093E8000E945107BCCF80914A04F4
:102C0000813A09F0B7CF8091E800877F8093E80090
:102C100080914E0490914F04892B61F468E08EE31B
:102C200094E070E00E94FD078091E8008B7780932C
:102C3000E800A0CF60E090E080E0F3CF809148040E
:102C40008111C0CF97CF80914A04813A09F092CF89
:102C500080914E0490914F04892B09F08BCF809185
:102C6000E800877F8093E8008091E80080FFFCCF38
:102C700080916B018093F1008091E8008E77B9CF4D
:102C800080914A04813209F075CF80914E04909171
:102C90004F04892B09F06ECF8091E800877F8093E5
:102CA000E8000E94510780914C0480936B010E94C0
:102CB000761560CF80914A04813209F05BCF809114
:102CC000E800877F8093E8000E94510780914D04BF
:102CD00080933C044FCF80914A04813A09F04ACF57
:102CE0008091E800877F8093E8008091E80080FF72
:102CF000FCCF80913C04BECF803899F0823809F037
:102D0000BBC180914E048F70873008F0B5C18093AD
:102D1000E9008091EB0085FB882780F91092E9009B
:102D200006C0809146049091470491118260909171
:102D3000E800977F9093E8008093F1001092F100F3
:102D40008091E8008E7794C1882309F482C1823093
:102D500009F092C180914C04811185C180914E048B
:102D60008F702FEF280F263008F086C18093E9007E
:102D70002091EB0020FF77C1933031F48091EB007C
:102D800080628093EB006FC19091EB009061909313
:102D9000EB0021E030E001C0220F8A95EAF7209392
:102DA000EA001092EA008091EB008860EACF81117E
:102DB00063C110914C041F778091E3008078812BD0
:102DC0008093E3008091E800877F8093E8000E9471
:102DD00051078091E80080FFFCCF8091E30080687C
:102DE0008093E30082E0111183E08093480444C1A2
:102DF0008058823008F040C180914C0490914D047D
:102E00008C3D23E09207A1F583E08A838AE28983DF
:102E10004FB7F894DE01139620E03EE051E2E32F35
:102E2000F0E050935700E49120FF03C0E295EF706B
:102E30003F5FEF708E2F90E0EA30C0F0C7968D9321
:102E40009D932F5F243159F74FBF8091E800877F12
:102E50008093E8006AE270E0CE0101960E94FD07CF
:102E60008091E8008B778093E80006C1C096E7CF99
:102E700040914E0450914F04292F332723303105C0
:102E800009F444C078F52130310509F46FC08BE3B3
:102E900090E0EBE3F7E02230310509F0EDC020913E
:102EA000E800277F2093E8002091500430915104DE
:102EB0008217930708F49C0140E02115310509F0C1
:102EC00064C0411162C08091E80082FDC9CF809149
:102ED0004804882329F2853019F28091E80083FFA5
:102EE000F2CFBECF21323105A9F12232310509F0EE
:102EF000C3C04115510509F443C04130510509F0E3
:102F0000BBC08BE790E0ECE7F6E0C9CF99278130B2
:102F10009105C1F0009759F0029709F0ADC0E8E8BB
:102F2000F7E0E4918E2F90E0E8E8F7E007C0E8ECE6
:102F3000F7E0E4918E2F90E0E8ECF7E0009709F4D9
:102F40009BC0ADCFEEEAF7E0E4918E2F90E0EEEA81
:102F5000F7E0F4CF4115510571F04130510509F00A
:102F60008BC089E090E0E6E6F7E099CF82E190E05F
:102F7000E6E7F7E094CF89E090E0EDE4F7E08FCF6B
:102F800084E490E0E7EFF6E08ACF8091480488235C
:102F900009F466CF853009F463CF8091E80083FDA2
:102FA0005FCF8091E80082FD8ECF8091E80080FFA6
:102FB00084CF9091F3008091F2002115310519F032
:102FC0008830910550F041E0089709F040E0809189
:102FD000E8008E778093E80070CF44914093F10031
:102FE0003196215031090196E8CF803809F044C06C
:102FF0008091E800877F8093E80080914904809366
:10300000F1009ECE811138C010914C041230A0F511
:103010008091E800877F8093E800109349040E9424
:103020005107112311F084E005C08091E30087FD72
:10303000FACF81E08093480442E061EC81E00E9495
:10304000700742E261EC82E00E94700780914804C0
:1030500013C080914C04813079F481E0933009F001
:1030600080E0809347041092E9008091E800877F18
:103070008093E8000E9451078091E80083FF0AC016
:103080008091E800877F8093E8008091EB00806268
:103090008093EB00AA96E3E00C948E2D1F920F9282
:1030A0000FB60F9211242F933F934F935F936F931B
:1030B0007F938F939F93AF93BF93CF93DF93EF93C0
:1030C000FF93D091E900DF708091EC00C82FC170B0
:1030D00080FDC0E81092E9008091F000877F809326
:1030E000F00078940E949D151092E9008091F00004
:1030F00088608093F000CD2BCF70C093E900FF91E2
:10310000EF91DF91CF91BF91AF919F918F917F917F
:103110006F915F914F913F912F910F900FBE0F9044
:103120001F9018950E9476152FEF84E39CE02150A4
:1031300080409040E1F700C0000088E19CE00FB6BD
:10314000F894A895809360000FBE90936000FFCF25
:1031500040912A0490912C0420912D04662309F4B7
:1031600069C0942B922B20912B04922B31F098E084
:103170009093210491E0909322048D3C41F40E94AD
:103180000209819580932B040E944F1508958E3C6F
:1031900019F40E940209F6CF8F3C31F40E94020913
:1031A000819580932A04F0CF803D19F40E94020992
:1031B000F8CF893D29F40E94E00880932C04E4CFE5
:1031C0008A3D21F40E94E0088195F7CF8B3D31F4D0
:1031D0000E94E008819580932D04D6CF8C3D19F490
:1031E0000E94E008F8CF9FE2980F983070F4815D5C
:1031F000990B21E030E001C0220F8A95EAF7809117
:103200002904822B80932904BFCF8D3D31F4809116
:103210002304816080932304B7CF8E3D21F48091F5
:1032200023048260F7CF8F3D09F0AECF8091230455
:103230008460F0CF8D3C59F480912B0487FF0DC042
:1032400010922B0441110BC01092210408C08E3C37
:1032500081F480912B0418169CF3442381F0809113
:103260002C0490912D04892B09F08ECF109222040A
:103270008BCF8F3C49F447FFF0CF10922A04809106
:103280002B048111ECCFE0CF803D19F41416ACF380
:10329000E4CF893D29F4191604F710922C04DDCFF0
:1032A0008A3D19F497FFD9CFF8CF8B3D29F427FF3A
:1032B000D4CF10922D04D1CF8C3D19F41216CCF33B
:1032C000CCCF9FE2980F983090F4815D990B21E06C
:1032D00030E0B90102C0660F771F8A95E2F7CB0193
:1032E000809590912904892380932904B6CF8D3D40
:1032F00031F4809123048E7F80932304AECF8E3DE2
:1033000021F4809123048D7FF7CF8F3D09F0A5CF65
:10331000809123048B7FF0CF8823D1F19CEF980F0D
:10332000913A78F4E0EAF2E09191891303C0DF0169
:1033300011971C9292E0E63AF907B1F70E94200F2C
:10334000089590E2980F983050F4877091E001C092
:10335000990F8A95EAF7892F0E941E0DEFCF9BE502
:10336000980F933028F490E080E00E94AA08089516
:1033700098E5980F9B3128F490E080E00E94850842
:10338000089593E3980F933118F460E00E94A81811
:103390000895CF93C82F8823B1F08CEF8C0F813A1A
:1033A00000F5E0EAF2E086EA92E0DF012D91C21733
:1033B00061F08A179B07D1F76C2F8EE992E00E948B
:1033C0006B080E94200FCF9108952191C21303C072
:1033D000DF0111971C928E179F07B9F70E94200FEB
:1033E000EBCF80E28C0F883068F4C77021E030E0CA
:1033F00001C0220FCA95EAF78091EF03822B8093D8
:10340000EF03DFCFEBE5EC0FE33040F4F0E0EA58F8
:10341000FE4F808190E00E94AA08D5CFE8E5EC0F2E
:10342000EB3150F4F0E0EE0FFF1FE758FE4F8081C4
:1034300091810E948508C7CF83E38C0F833118F6F2
:1034400061E08C2F0E94A818BECF1F93CF93DF930B
:10345000182FEB010E94C919209739F4812F0E947F
:103460008C19DF91CF911F9108958FE99FE001970B
:10347000F1F700C000002197EFCF0F931F93CF9378
:10348000DF93C62FD42F022FFC0185818823A9F05A
:1034900060938E040E94431590938D0480938C0456
:1034A000C77081E001C0880FCA95EAF70E94620FD9
:1034B000DF91CF911F910F91089580918E04681331
:1034C00034C080918C0490918D040E943415883C06
:1034D000910558F510E21D0FCD17B9F080E28C0F61
:1034E000883040F4C77081E001C0880FCA95EAF7C0
:1034F0000E945B0F183048F481E09D2F977001C047
:10350000880F9A95EAF70E94620F70E060E0802FC2
:103510000E94251A183060F6D77081E001C0880F2C
:10352000DA95EAF70E945B0FC3CFC77081E001C054
:10353000880FCA95EAF7F6CF80E090911C0420919D
:103540001B04921301C00895292F30E0F901E55EB4
:10355000FB4F8281235E3B4FF90120812F779F5FD4
:10356000937090931C04881F8827881F21110AC01C
:1035700070E060E029F089EA0E94251A81E0DDCF41
:103580008AEAFACF2130D1F770E060E0882311F0A9
:103590008EE4F2CF8BE4F0CFB0E0A0E0E2EDFAE110
:1035A0000C946B2D8C01FC018481882341F121E076
:1035B000408151816281738195810E943F0EEC01AF
:1035C000FC01E851FC47E730F105A8F5E35CF14D5B
:1035D0000C94BA2D26E241EE61EEC8010E943D1A1C
:1035E0008091C702877059F0F8018581882339F0EE
:1035F0008091270382FF03C082E00E94F00DCDB7C7
:10360000DEB7EAE00C94872D27E245EE65EEE5CFC4
:1036100026E241EE60EEE1CF27E245EE64EEDDCF3B
:1036200026E241EE62EED9CF27E245EE66EED5CF37
:1036300028E241E0EBCFF8018581882309F4D1C36A
:1036400010928E04CE019057839708F0B4C384E0A3
:1036500090E00E94F72D9093270380932603FE01AC
:10366000E150F047E232F10520F4EC5BF14D0C94AF
:10367000BA2D8091260381608093260395C08091A6
:1036800027038860809327038FC080912603826080
:10369000F3CF809126038460EFCF8091260388606A
:1036A000EBCF809127038160EDCF8091270382606B
:1036B000E9CF809126038061DFCF8091260380626D
:1036C000DBCF809126038064D7CF0E94761580914E
:1036D00026038068D1CF809126038C60CDCF809166
:1036E00027038360CFCF809126038E7FC5CF809143
:1036F0002703877FC7CF809126038D7FBDCF809121
:1037000026038B7FB9CF80912603877FB5CF809129
:1037100027038E7FB7CF809127038D7FB3CF809112
:1037200026038F7EA9CF809126038F7DA5CF809120
:1037300026038F7BA1CF0E947615809126038F7779
:103740009BCF80912603837F97CF809127038C7F27
:1037500099CF8091260382FB992790F921E0922747
:1037600090FB82F990FB83F987CF80912703982FF4
:10377000909591708E7F892B90FB81F983CF9091EA
:103780002603892F8F7B96FF806476CF0E94761563
:1037900090912603892F97FB87F980586DCF61E0C0
:1037A0008EE090E00E940D2E609126037091270319
:1037B00084E090E00E942B2E0E94761511CF60E0ED
:1037C000EFCF90912603892F8F7E94FF806154CF95
:1037D00090912603892F8E7F90FF81604DCF90912D
:1037E0002703892F877F93FF88604CCF8091A602A3
:1037F00081110FC089E2E0EAF2E026EA32E091911D
:10380000891303C0DF0111971C922E173F07B9F7E8
:10381000E5C285E3F0CF8091900491E08927809301
:10382000900410926C0180918F04816080938F04CA
:10383000D7CE4DE75AE067E87AE00E94E509D0CE9E
:1038400047E85AE06DE77AE0F8CF49E65AE063E7E7
:103850007AE0F3CF43E75AE069E67AE0EECF4FE44F
:103860005AE06CE57AE0E9CF4CE55AE06FE47AE0A3
:10387000E4CF45E35AE062E47AE0DFCF42E45AE085
:1038800065E37AE0DACF49E15AE067E27AE0D5CF42
:1038900047E25AE069E17AE0D0CF81E00E94C006B9
:1038A0009FCE0E947615FFEF24E33CE0F1502040CC
:1038B0003040E1F700C000000E94C90F6FEF7FEFBA
:1038C00090E080E00E942B2E0E94921880912703A6
:1038D00082FB882780F991E089270E940712F8016E
:1038E0008581C081D181882309F44DC0CE010E9419
:1038F0002F0DF82E682FCE010E94A30DBE018F2D33
:103900000E94E10B0E94000CD82FC92FA82EF801AD
:10391000C580B680B2943FE0B3228091C702877021
:1039200009F1EC2CCC20F9F0892F807F803469F0EC
:1039300080E28D0F8830B0F0892F807E803229F4AC
:10394000F1E0FD1778F4BB2069F08091270382FF36
:1039500009C082E00E94F00D8091C7028770EE24BA
:10396000E3948111E12CDC2ED2942FE0D2222BE0C3
:103970002D1508F46DC0ED2DF0E0EA59F14D0C94D1
:10398000BA2D80E0AACFCE010E94700DF82EB6CFDE
:103990003C2F3F70F32EC07F19F0F29490EFF92284
:1039A000CC20B9F0FF2069F080E28D0F883010F054
:1039B000A11009C08091EF03F82AF092EF030E9452
:1039C000200F8D2F43C08091C802F82AF092C802C0
:1039D000F6CF8D2F0E948C19FF20D1F1D05ED83008
:1039E00010F0A11004C08F2D0E941E0D06C0F0948F
:1039F0008091C802F822F092C8020E94200F28C0CD
:103A00008C2F8F70F82EC07FC03219F0F29480EFA7
:103A1000F822AA2059F091E0A91609F479C0CC2027
:103A200009F485C0BB2009F447C0CBCF80912703A0
:103A300082FD3EC0CC20B1F1FF2039F08091EF0330
:103A4000F82AF092EF030E94200F80E00E94C9192B
:103A50002D2D2850330B2430310510F40E94CF084F
:103A6000EE20A9F08091C70280FD11C0F8011582F7
:103A70008695869586950E94070EC8010E94CC1AED
:103A80008091C7028695869586950E94DE0D20E07E
:103A9000F8014081518162817381848195810E9406
:103AA0003F0EADCD80E00E948C19FF2089F29BCFA4
:103AB000CC20A1F0B11004C08F2D0E94620FC8CF9E
:103AC000E1E0BE12C5CF8091F0039F2D9823F91637
:103AD00009F4BECFF82AF092F003BACFB110B8CFF4
:103AE0008F2D0E945B0F9091F0038F2D892329F079
:103AF0008F2D809589238093F0038091A7029F2DBD
:103B0000982309F4A5CFF094F822F092A702A0CF51
:103B1000CC2029F0F5E0FB1508F49ACFCDCF24E0B6
:103B20002B1508F495CF8F2D0E945B0F91CFBB20F2
:103B3000D1F339E3A31209C08FEF97EEE3E0815090
:103B40009040E040E1F700C000008D2F0E948C19EA
:103B50007FCF8C2F86958695837069F0813009F030
:103B600077CF8D2F9C2F9370C11002C080E090E022
:103B70000E9485086DCF8D2F9C2F9370C11002C0BD
:103B800080E090E00E94AA0863CF6C2D8D2F0E94E8
:103B9000A8185ECF8C2F837009F03FC0C11058CF9A
:103BA0004D2F429546954770440F440F2D2F2F708F
:103BB00030E0042E02C0220F331F0A94E2F790E097
:103BC00080E0D4FF09C08FE090E002C0880F991F09
:103BD0004A95E2F780959095C695C695C370C23018
:103BE00099F078F44091EB035091EC03C13039F037
:103BF000822B932B842395230E94170E29CF242BED
:103C0000352B822B932BF8CF822B932B2091EB0318
:103C10003091EC0382279327EFCF8695CC2011F0CB
:103C20008C2F8170882309F413CF4D2F4295469530
:103C30004770440F440F2D2F2F7030E0042E02C028
:103C4000220F331F0A94E2F790E080E0D4FF09C00E
:103C50008FE090E002C0880F991F4A95E2F78095A7
:103C60009095C695C695C370C23099F078F440918E
:103C7000ED035091EE03C13039F0822B932B842356
:103C800095230E94D90DE4CE242B352B822B932B28
:103C9000F8CF822B932B2091ED033091EE038227F6
:103CA0009327EFCFCF70CC2029F08C2F0E94070EE6
:103CB0008D2F03CF8D2F0E945B0F8C2F0E94DE0D66
:103CC000C7CE8D2FF2EFAF1699F1FA1570F020EFF5
:103CD000A216D1F031EFA31691F0CC2009F45BC00D
:103CE000B1106FCE8C2F8F7127C093EFA91639F1C9
:103CF000E4EFAE12F2CF8091270382FD2EC08C2F0D
:103D00008F71CC20D9F218C0CC2069F0F4E0FB15FB
:103D100008F49ECECF7181E090E002C0880F991F19
:103D2000CA95E2F7B8CF25E02B1508F491CEF2CF73
:103D30008C2F8F71C110C2CF0E94070E89CE90E0E8
:103D400080E0CC2009F49DCFCF7181E090E002C0EB
:103D5000880F991FCA95E2F794CFCC2089F0CF71D4
:103D60008C2F0E94070E8091270382FF07C038E046
:103D7000C39FC001112483608093C7028C2FDCCFC6
:103D800081E00E94F00D81E08B1508F061CE82E0A9
:103D90000E94F00D5DCEBB2059F0893309F0D5CEDD
:103DA0009FEFE7EEF3E09150E040F040E1F7CBCE3B
:103DB0008C2F8F7183CFC631FCE7DF0729F5809107
:103DC000EF038A7A91E009F490E09093A60269E209
:103DD000811165E38EE992E00E946B080E94200F3A
:103DE000FFCBC6312CE7D20709F400CD8091EF0359
:103DF0008272FE01E052F847E531F10508F06FCD1F
:103E0000EE58F14D0C94BA2DC3303CE7D30709F4BA
:103E100055CD50F4C1159CE7D90709F442CDC13006
:103E2000DC4709F451CD5BCDCB35FCE7DF0709F466
:103E3000A8CDCC352CE7D20709F448CDCA35DC47EC
:103E400009F04DCD81E049CDCF93DF938091C6023B
:103E5000807F09F04DC08091C502882309F448C0D5
:103E6000E0918B0450915204C091C102D091C002E4
:103E70006091C2027091C30247E05E17C9F18E2FB4
:103E800090E0E49FF0011124ED5AFB4F248122239E
:103E900091F1489FF001499FF00D1124DF01AD5AC7
:103EA000BB4F11962C9111972C1325C02C912D13DB
:103EB00022C015962C91159721111DC012962D9197
:103EC0003C91261B370B283C3105A8F48091C60293
:103ED0008F7080618093C602E75AFB4F80818F709C
:103EE0008061808380EC92E00E94CC1A0E94250DB4
:103EF000DF91CF910895FC013196E770BECFA4E128
:103F0000B0E0E5E8FFE10C94692D8C0186E0F80152
:103F1000DE011F9601900D928A95E1F7F8018481E8
:103F2000E58090ECA92E92E0B92E9091C4029111F7
:103F300028C0882319F1EE20F1F0C8010E941C0E60
:103F4000F82E8823C1F087E0F801D50101900D9289
:103F50008A95E1F78091C402813031F48091C002EA
:103F60009091C1020E94630D0E94241F8F2D6496C0
:103F7000ECE00C94852DC8010E94CC1AFF24F39428
:103F8000F5CFD080C18082809380F090C5022091CF
:103F9000C2023091C302A401421B530BFF2009F45B
:103FA000D9C0483C510508F092C08823F9F290919D
:103FB000C1028091C602282F207F09F056C0C91285
:103FC00014C09091C002D91210C0E11048C08F7087
:103FD00080618093C60280EC92E00E94CC1A8091AE
:103FE000C602F8018683F12CC1CFE11038C06C2DD8
:103FF0008D2D0E94CF066C2D8D2D0E94CF06E82EB0
:104000008111F1CFDF86C88A8F8598890E94630D60
:10401000292F22952F70243058F49F70223088F079
:10402000992399F0F8019681907F79F4FE2C9ECF28
:104030002A5F2F70223068F0C8010E94CC1AEF2C42
:10404000F5CF992311F0882389F3805E883070F3CF
:10405000F3CF803F58F3815F833070F7E7CF8091D3
:10406000C60281608093C602BECFC91207C090917C
:10407000C002D91203C0EE2009F48DC0C8010E940D
:104080001C0E882309F477CFEE2009F474CF8091B9
:10409000C602803288F02091C0023091C102398777
:1040A00028879B868A869091C4029C871D868E876E
:1040B000CE0108960E94CC1A87E0F801A0ECB2E08D
:1040C00001900D928A95E1F70E94241F57CF90919D
:1040D000C602292F207F51F480EC92E00E94CC1A76
:1040E00087E0F50111928A95E9F77DCF882309F4DD
:1040F0003DCF8091C1028C1110C08091C002D812B6
:104100000CC0E1100AC09683C8010E94CC1A87E057
:10411000F50111928A95E9F729CFC8010E941C0E7A
:10412000882309F428CFEE2009F425CF8091C60218
:10413000803210F22091C0023091C1023A8329836B
:104140009C828B829091C4029D831E828F83CE01BC
:104150000196B0CF483C5105D0F6882309F40ECF24
:10416000FE2CEE2009F407CF8091C1028C1120C0F3
:104170008091C002D8121CC08091C60280FD0FC081
:10418000982F907F61F08683903F31F0982F907F39
:10419000905F8F70892B8683C8010E94CC1A87E0BC
:1041A000F801A0ECB2E001900D928A95E1F7DECE25
:1041B000C8010E941C0E81117FCF8091C6028160D0
:1041C0008093C602C8010E94CC1AD0CEABE1B0E009
:1041D000ECEEF0E20C94712D4E8B5F8B688F798F33
:1041E0008A8F9B8F192F91111092C8021D8A86E029
:1041F000FE017696DE011F9601900D928A95E1F7F9
:104200000A8D002341F021E04F85588969897A8918
:10421000C8010E943F0E0B8B1C8B87E0FE013F966E
:10422000DE01189601900D928A95E1F7CE0108966D
:104230000E947F1F81112AC087E0FE013896DE01AF
:10424000119601900D928A95E1F78C858823F1F003
:104250002091520430E0C90101968770992740915E
:104260008B0448171906E9F097E0929FD001939FBD
:10427000B00D1124AD5ABB4FFE01319601900D9245
:104280009A95E1F7809352040E94250D17E08091E2
:104290008B0490915204891312C06B96E4E00C9445
:1042A0008D2D0E9476151092520410928B0487E097
:1042B000E0ECF2E0DF011D928A95E9F7E7CF819FFC
:1042C000C00111248D5A9B4F0E947F1F882329F320
:1042D00080918B0490E001968770992780938B04DE
:1042E000D6CF2F923F925F926F927F928F929F9242
:1042F000AF92BF92CF92DF92EF92FF920F931F93F4
:10430000CF93DF9380911A04882309F44CC18091E4
:104310001804909119040E943415C29708F424C11E
:104320000E9443159093190480931804C091980437
:104330008BE994E09093A2068093A10680912E04CD
:10434000882309F447C160E870E082E593E00E94A9
:10435000A50924E0C29FC0011124811562E09607DF
:1043600014F090E080E085569B4F9093A2068093D6
:10437000A10682ED93E00E94120F88E194E00E9472
:10438000120F8091ED039091EE032091EB03309199
:10439000EC03822B932B292F33272115310509F4A8
:1043A0005DC0C90128E0AC0174E0569547957A9547
:1043B000E1F74115510511F02C5FCA01AC0156958A
:1043C0004795569547954115510511F02E5FCA0145
:1043D00096958795892B09F02F5F88EF93E022301F
:1043E00051F088EE93E0233031F088E094E0213002
:1043F00011F088ED93E00E94120F88E194E00E9492
:10440000120FC091F0038091EF03C82BDC2FD878F6
:10441000C474DD2329F181E494E00E94120F8AE341
:1044200094E0CC2329F18CE394E00E94120F83E303
:1044300094E0C11102C080E394E00E94120FDD23DA
:10444000E9F08DE294E00E94120F88E294E00E946D
:10445000120FC1111DC08EE194E01CC020E0A3CF5B
:104460008EE394E00E94120FC11105C086E394E030
:104470000E94120FE0CF88E394E0D7CF8AE294E065
:104480000E94120FCC2389F186E294E00E94120F61
:1044900081E294E00E94120FC091F0038091EF033B
:1044A000C82BDC2FD171C272DD2321F187E694E0A5
:1044B0000E94120F80E694E0CC2321F182E694E082
:1044C0000E94120F89E594E00E94120FDD2311F182
:1044D00083E594E00E94120F8EE494E00E94120F94
:1044E000C11123C084E494E022C084E294E00E94DD
:1044F000120FB1CF84E694E00E94120FC11107C0E1
:104500008CE594E00E94120F86E594E0DDCF8EE505
:1045100094E0D6CF80E594E00E94120FCC2309F4FA
:1045200054C08CE494E00E94120F87E494E00E944F
:10453000120F0E94CF08C82F86E794E0C0FF02C088
:1045400089E794E00E94120F80E794E0C1FF02C067
:1045500083E794E00E94120F8AE694E0C2FF02C053
:104560008DE694E00E94120F8091990490919A0434
:10457000892BB9F5809117048823A9F00E945F0860
:104580000091130410911404209115043091160425
:10459000601B710B820B930B6F3F7F4F8F4F9F47B9
:1045A00010F40E945A10DF91CF911F910F91FF904C
:1045B000EF90DF90CF90BF90AF909F908F907F90C3
:1045C0006F905F903F902F9008958AE494E00E944E
:1045D000120F88CF60E072E08CE794E00E94A5099A
:1045E000C3CF80911A04882329F28091120481118B
:1045F000C1CF0E9475102091990430919A04211521
:10460000310509F4B7CF80E041E050E0082F10E019
:104610001A01082E02C0220C331C0A94E2F7B101E1
:1046200062237323672B11F48F5FF0CF90911104F5
:1046300090FF95C0880F880F880F809364011092B7
:104640006701895F8093650183E08093680124E6B8
:1046500030E047E050E062E671E088E70E94BF2A60
:10466000892B09F087CFA80125E0440F551F2A9513
:10467000E1F78091110480FF84C0E1EFF3E080E274
:10468000DF011D928A95E9F7A7E9B2E003E912E09C
:104690008BE9C82E82E0D82E97E0592E77247394A8
:1046A0008D91E80129918E01240F352F311D25565A
:1046B0003B4FE82FF0E0EF50FC4F90E080E0652C9E
:1046C000681A872C082E01C0880C0A94EAF7790131
:1046D000A12CE701B9907E01B820662D6A19677098
:1046E000962E062E000C770BDB2D01C0DD0F9A9461
:1046F000EAF77195619571096770772701C0B694E3
:104700006A95EAF7BD2A6081962E9B289082A39431
:1047100068E0A612DECF019631968830910579F6D1
:10472000CA16DB0609F0BCCF04E610E020E230E058
:1047300041EF53E060E488E70E94492B892B09F0A0
:1047400019CFE101C095D0958091990490919A0478
:10475000C823D923D0939A04C09399040BCF829590
:10476000880F807680936401980136952795369559
:10477000279520936701815E8093650120936801EE
:1047800066CF45565B4F04E610E020E230E0D2CF22
:10479000ACE0B0E0EEECF3E20C94682D8E010F5F1C
:1047A0001F4F88E0D8011D928A95E9F78EE4C82E44
:1047B00081E0D82EF12CE12CAA24A394B12C2EE474
:1047C000822E21E0922EF60181916F018F3F09F434
:1047D00042C0F894E82FE295EF70F0E021A18F70CD
:1047E000A50102C0440F551F8A95E2F7CA01922F16
:1047F000982B91A392A18095892382A3789400C0DD
:10480000E8E4F1E0712C31E021912F3F09F4B9C0C7
:10481000A22FA295AF70B0E090968C9190E02F708F
:1048200002C0959587952A95E2F780FDAAC0832F4F
:10483000782A330F8E169F0639F7F601319780815B
:104840008F3F11F00E94BF0A50EA5A95F1F7F80124
:10485000EE0DFF1D70828FEFE81AF80A94E0E9165A
:10486000F10409F0B0CF48E050E0B8018CE193E0EA
:104870000E94C92D009741F028E0F801ACE1B3E0B7
:1048800001900D922A95E1F70091250310E0085D53
:104890001C4F892B09F477C081E08093D5020E94D8
:1048A00043159093D4028093D302F12CE0902E0410
:1048B000EE2009F4C2C019861A861B861C868091D8
:1048C00017038A3008F083C043E054E1BE01675FFC
:1048D0007F4FC8010E941A10882309F49DC04EE33F
:1048E00053E1BE01675F7F4FC8010E941A10882301
:1048F00009F492C049EB53E1BE01675F7F4FC801E5
:104900000E941A10882309F487C046E652E1BE01CE
:10491000675F7F4FC8010E941A10882309F47CC08A
:1049200044E153E1BE01675F7F4FC8010E941A1046
:10493000882309F471C045EF52E1BE01675F7F4FE4
:10494000C8010E941A10882309F466C01092170348
:104950008091240390E044E050E0BE01675F7F4F08
:10496000885D9C4F0E94C92D21E02093DC02892B99
:1049700009F044C0E12C8E2D8F292C96EDE00C948B
:10498000842D80E055CFF090D502FF2009F48DCF23
:104990008091D3029091D4020E943415059708F4B7
:1049A00084CF44E050E06CE173E0C8010E94C92D5F
:1049B000892B59F084E0ECE1F3E0D80101900D92ED
:1049C0008A95E1F71092D50271CFF12CFBCF80913F
:1049D000D6029091D7020E943415843F914008F08E
:1049E00073CF8091DC02882329F2FE01399684E09E
:1049F000DF011D928A95E9F71092DC02E091240311
:104A0000F0E0E85DFC4F89859A85AB85BC858083A5
:104A10009183A283B383AFCF809117038F3F31F08F
:104A20008F5F809317038A3008F492CF0E9443155A
:104A30009093D7028093D602D4CFC0902403D12C78
:104A4000F601E85DFC4F6F0184E0F801AEEDB2E0E5
:104A500001900D928A95E1F764E070E08EED92E0AE
:104A60000E9430098093DD0284E0E2EEF2E0D6019C
:104A700001900D928A95E1F786E0EBE1F4E0A7EE74
:104A8000B2E001900D928A95E1F766E070E087EE62
:104A900092E00E9430098093E6028090ED029090AF
:104AA000EE02A090EF02B090F0028091D8029091B7
:104AB000D902A091DA02B091DB0288169906AA0603
:104AC000BB06B1F08092D8029092D902A092DA028D
:104AD000B092DB020E945F08861A970AA80AB90AF8
:104AE0008092180390921903A0921A03B0921B03AC
:104AF00088E0E1EFF2E0A0E9B4E001900D928A9540
:104B0000E1F78091FA02882319F00E94751033CFE3
:104B10000E945A1030CFA6E0B0E0E1E9F5E20C9433
:104B2000712D0E9443158C018091D1029091D20287
:104B30008017910781F019821A820E944315682F0D
:104B400049815A81792F80E090E00E94E6201093FD
:104B5000D2020093D1022696E4E00C948D2D1F9290
:104B60001FB61F9211248F939F93AF93BF93809191
:104B70003604811113C08091370490913804A091BC
:104B80003904B0913A044196A11DB11D80933704B8
:104B900090933804A0933904B0933A04BF91AF9135
:104BA0009F918F911F901FBE1F901895CDB7DEB7B4
:104BB0002E970FB6F894DEBF0FBECDBF85B78068C5
:104BC00085BF85B7806885BF84B7877F84BF0FB6F0
:104BD000F894A8958091600088618093600010929D
:104BE00060000FBE80E890E00FB6F89480936100FB
:104BF000909361000FBE88EB9AE090939D028093A2
:104C00009C020E9401070E94A2078091E20084603A
:104C10008093E2007894809148048823A1F0109159
:104C2000E9001F709091EC00892F817090FD80E861
:104C3000182B1092E9008091E80083FD0E949D15D9
:104C40001F701093E90082E084BD93E095BD9AEF58
:104C500097BD80936E001092180310921903109262
:104C60001A0310921B038091D80080618093D800B2
:104C70002AE12A95F1F700C08091D900182F117010
:104C800080FD04C00E9401071092480410932E0476
:104C900084988C988FE891E00197F1F700C00000AC
:104CA0008FB18295817080932F04809352018091FF
:104CB0002E0481110E94ED2BEBE1F4E086E0DF0190
:104CC0001D928A95E9F78091520191E0892780939E
:104CD0003B038091520190933E0380915201809159
:104CE0005201811106C086EF8093690187EF80939E
:104CF0006A0160E080E00E94620961E080E00E9459
:104D00006209EFE8F1E03197F1F700C0000010E030
:104D100080913E03181708F4F9C080915201811167
:104D200020C081E380934E0183E380934F0182E3AF
:104D30008093500186E38093510186E0EDE6F1E037
:104D4000DE01119601900D928A95E1F7FE013196F0
:104D5000A8E4B1E0CE01079621912D93E817F90759
:104D6000D9F78091520194E0811190E0909325034E
:104D700084E0891B809324030EE411E052E5E52EC4
:104D800051E0F52ED8018D918D018F3F11F00E94D9
:104D9000BF0AE016F106B1F708E411E04EE4E42E94
:104DA00041E0F42EF80181918F018F3F11F00E94B4
:104DB000BF0AE016F106B1F788E0E8E2F3E0DF01B0
:104DC000282F1D922A95E9F7ECE1F3E0DF011D920F
:104DD0008A95E9F790E080E00E94F72D863E9E4F8D
:104DE00009F466C066EE7EEF90E080E00E942B2E14
:104DF00060E082E090E00E940D2E81E090E09093D0
:104E0000EC038093EB0361E083E090E00E940D2EC1
:104E100060E074E184E090E00E942B2E60E086E088
:104E200090E00E940D2E60E087E090E00E940D2E41
:104E300040E050E0BA0188E090E00E941F2E60E060
:104E400084E290E00E940D2E60E087E190E00E94F5
:104E50000D2E60E08CE090E00E940D2E60E08DE071
:104E600090E00E940D2E19821A821B821C821D82E4
:104E70001E821F82188648E050E068E170E0CE0193
:104E800001960E94FD2D40E050E0BA0180E290E0E2
:104E90000E941F2E40E050E0BA018FE090E00E9497
:104EA0001F2E40E050E0BA0183E190E00E941F2EE7
:104EB00082E090E00E94EF2D8093300384E090E048
:104EC0000E94F72D90932703809326030E94C82306
:104ED000EFEFF6E721E0E150F0402040E1F700C0BD
:104EE00000000E94C82380912F04E4E08111E0E0DB
:104EF000F0E0E85DFC4F808185FF1AC06FEF7FEF27
:104F000090E080E00E942B2E0E94C90F60E0812F6C
:104F10000E944609082F61E0812F0E944609E12F77
:104F2000F0E0E45CFC4F880F802B80831F5FF0CEA5
:104F300083E090E00E94EF2D90E00E94170E0E9407
:104F4000160A81E080938F0448E050E068E170E049
:104F500080E994E00E94DF2D10928F0480919004EC
:104F60008C7FF9F485E08093900480917301909197
:104F70007401A09175018093910490939204A09381
:104F800093048FE7809394048FEF8093950448E017
:104F900050E068E170E080E994E00E94FD2D1092FD
:104FA0008F0483E08093110480E2809398040E9430
:104FB0008B2A6BE070E083E492E00E944D1088231E
:104FC000E9F18091110465E070E081FDA1C08EE3FC
:104FD00092E00E944D10882389F16DE070E08CE230
:104FE00092E00E944D10882349F10E945F08605AA8
:104FF00075418F4F9F4F60931304709314048093F7
:10500000150490931604EBE9F4E080E092E0DF01F0
:105010009C011D9221503040E1F7F093A206E093ED
:10502000A1068FEF9FEF90939A048093990481E0FB
:1050300080931A04809317041092120480912E0416
:10504000811102C00E94F02B83E591E0909333041C
:105050008093320498E1C92ED12C20E3A22E23E0C4
:10506000B22E34E0832E912C8091480400E112E1AD
:10507000853009F488C00E94C82301E313E088E268
:10508000E82E83E0F82ED701F80191918D9123E06D
:10509000E933F20709F481C09817B9F320902E0480
:1050A000712CD7016D907D01F80131908F0136147C
:1050B00031F1512C442443943624832D8421B9F0BA
:1050C0002220A9F059867A860E9443159C878B87F7
:1050D000F1E0FD8791E0862D842109F490E09E8720
:1050E00049855A856B857C858D850E94E620539481
:1050F000440C26E05212E1CFF8013197608273949C
:1051000038E07312CECF0E94D60A772473944AC037
:1051100089E392E05ECF80914804843031F10E94AF
:105120009D100E945A101092360430E40FB6F89485
:10513000A895C09260000FBE3093600083B7817F56
:10514000846083BF83B7816083BF7894889583B779
:105150008E7F83BF0FB6F894A89580916000886118
:1051600080936000109260000FBE809147048823F6
:1051700051F00E94C823E8E2F3E08191811155C10A
:10518000AE16BF06D1F780914804853009F4C3CF2D
:105190000E9476150E94CF086ECF98137FCF0E9491
:1051A0008B25712C0E949D10E0902E04EE2019F0AA
:1051B0000E949C1AE82EF12C80913E03F81688F08C
:1051C00080912E04882319F00E949C1AE82AEE2070
:1051D00009F443C00E94D60A0E9471210E947510F2
:1051E00040C061E08F2D0E944609182F60E08F2D8E
:1051F0000E944609E12FEE0F8E2B0F2D10E0D801F3
:10520000A45CBC4FEC919E2F9370891721F1EE0F97
:10521000EE0FE82BEC9380913B038F0DEF70F0E0E5
:10522000EF54FE4F075C1C4F6080D8019C91690EC3
:105230006C92B3E060E0B61524F0EDEF6E161CF44E
:1052400061E00E948509862D660C990BB4010E94CD
:10525000A62DD8018C93F394AFCF0E9471217110C9
:10526000BDCF86E0E8E2F4E0DE01119601900D92F8
:105270008A95E1F77090290400912A04F0902B049C
:10528000E0902C0410912D0410922A0410922B040B
:1052900010922C0410922D04802F8F2909F445C000
:1052A00080912604909127040E9434159C019091CE
:1052B0002104992309F4D8C025313105B0F19F3F6D
:1052C00019F09F5F90932104002359F00E94020976
:1052D0009FEF10160CF491E0899F802D112480938C
:1052E0002A04FF2059F00E94020991E01F140CF0DB
:1052F0009FEF899F802D112480932B0480912A0495
:10530000882399F060902B04662079F00E9422098E
:10531000882309F482C080932A04862D0E942209E2
:10532000882309F47CC080932B04812F8E2909F4F3
:1053300043C080912404909125040E9434159C015F
:1053400090912204992309F48AC021353105A0F1F6
:105350009F3F19F09F5F90932204EE2059F00E9426
:10536000E0089FEF1E140CF491E0899F802D11241A
:1053700080932C04112359F00E94E00891E011164B
:105380000CF09FEF899F802D112480932D04809134
:105390002C04882389F0E0902D04EE2069F00E940F
:1053A00022098823F1F180932C048E2D0E9422097A
:1053B0008823C9F180932D0480912904781216C0A6
:1053C00080912A04882311F0801310C020912B04AF
:1053D000222311F02F110AC090912D04992311F06E
:1053E000191304C030912C043323A9F10E944F15E6
:1053F00086E0FE013196A8E2B4E001900D928A9514
:10540000E1F70E94CF0890913F03891709F42CCE51
:1054100080933F030E945F0827CE81E07CCF81E02C
:1054200082CF81E0C0CF81E0C5CF09BD19BD09B4ED
:1054300000FEFDCF8091D8008F7D8093D8008091B1
:10544000E00082608093E0008091E00081FDFCCF6D
:105450000E94761598CE822B892B51F2C7CF2B3024
:10546000310508F077CFA8CF2B30310508F029CFD0
:105470005CCFEF92FF920F931F93CF93DF93182F80
:10548000EB011092BC0084EA8093BC000E9443159B
:105490007C018091BC0087FF27C08091B900887F84
:1054A000883029F08091B900887F803189F5109388
:1054B000BB0084E88093BC000E9443158C0180915E
:1054C000BC0087FF1EC02091B900287F90E080E0DB
:1054D000283191F081E090E0203411F490E080E0F8
:1054E00091958195910908C0C7010E943415C8178C
:1054F000D90778F68EEF9FEFCDB7DEB7E6E00C94D4
:105500008B2DC8010E943415C817D907C0F6F2CFF9
:105510008FEF9FEFF1CF1092B9008CE08093B8002D
:1055200008950F931F93CF93DF93EB018093BB00FC
:1055300084E88093BC000E9443158C018091BC00DC
:1055400087FF11C02091B900287F81E090E02832C8
:1055500011F490E080E0919581959109DF91CF91D0
:105560001F910F910895CF3FDC0741F3C8010E94BE
:105570003415C817D90710F78EEF9FEFEFCFB0E0C3
:10558000A0E0E5ECFAE20C94682D782E5B016A014C
:1055900089010E9443154C01C1E0D0E0043111059E
:1055A00058F0C5E0D0E00F3F100731F0C80164E1CA
:1055B00070E00E944F2DEB01BE01872D0E94392A19
:1055C0007C0197FF09C00F3F1007B1F3C4010E948F
:1055D00034150817190780F7E501CA0CDB1CCC1538
:1055E000DD0511F0F7FE09C084E98093BC00C70116
:1055F000CDB7DEB7EDE00C94842DB80189910E94FF
:10560000912A7C01ECCFB0E0A0E0E9E0FBE20C9451
:10561000682D782E5B016A0189010E9443154C01B7
:10562000C1E0D0E00431110558F0C5E0D0E00F3FF3
:10563000100731F0C80164E170E00E944F2DEB01CA
:10564000BE01872D0E94392A7C0197FF09C00F3FB8
:105650001007B1F3C4010E9434150817190780F729
:10566000E501CA0CDB1CCC15DD0511F0F7FE09C005
:1056700084E98093BC00C701CDB7DEB7EDE00C94A0
:10568000842DFE018491B8010E94912A7C0121960B
:10569000EACFB0E0A0E0EFE4FBE20C94672D682EC7
:1056A000762E5A0169010E9443154C01C1E0D0E0F9
:1056B0000431110558F0C5E0D0E00F3F100731F07C
:1056C000C80164E170E00E944F2DEB01BE01862D00
:1056D0000E94392A7C0197FF1DC00F3F1007B1F3CC
:1056E000C4010E9434150817190780F784E98093D4
:1056F000BC00C701CDB7DEB7EEE00C94832DB80136
:1057000089910E94912A7C01CC16DD0679F3F7FE7F
:10571000F6CFECCFB801872D0E94912A7C01E501DC
:10572000CA0CDB1CF1CF8EE14A9B02C08150E1F72D
:105730004A9BFECF08955A9880E28A95F1F75A9ACB
:105740000895FC013BE03A95F1F798E020E080E015
:1057500031E040E14A95F1F7880F4A9B02C0816031
:10576000232742E04A95F1F7000040E14A95F1F71E
:10577000915079F790E19A95F1F799B132E03A9525
:10578000F1F7000040E14A95F1F792FB992790F973
:1057900092272081920F90830895A1E0B0E0E3ED7D
:1057A000FBE20C946F2D19828C017C01E60EF11C3A
:1057B0000E151F0541F481E09981911180E0219639
:1057C000E6E00C948B2D0E94932BCE0101960E9453
:1057D000A12BF80181938F01EBCF529A5A9A089529
:1057E00052985A9AEA9AE9E6F0E080818F7C8083A9
:1057F00008956150770B91E001C0990F6A95EAF71F
:1058000020E031E0911108C0222391F05A9A80E201
:105810008A95F1F75A980895492F482339F05A9AF2
:10582000232740E24A95F1F79695ECCF5A98F9CFA5
:105830005A98EDCFFF920F931F93CF93DF93EC0114
:105840008C01060F111DC017D10729F4CDB7DEB7A3
:10585000E5E00C948C2DF9900E949B2B68E08F2D35
:105860000E94F92BF0CF1F920F920FB60F921124C6
:105870000F931F932F933F934F935F936F937F9358
:105880008F939F93AF93BF93EF93FF93CF93DF9348
:105890000F92CDB7DEB719820E94932BCE010196ED
:1058A0000E94A12B082F069506950695282F229574
:1058B0002570902F9570290F922F9370269526951D
:1058C000920F982797708981982B09F05CC00A3055
:1058D00008F059C080E18A95F1F75A9A529A82E00D
:1058E0008A95F1F700C05A9888E0089F800111243A
:1058F000D801A050BF4F1696ED91FC9117973097A5
:10590000A9F06091AF017091B00114962D913C9176
:105910001597260F371F11968D919C911297680F3E
:10592000791F13964C9113978C910995F801E050CB
:10593000FF4F6381662351F02091AF013091B00198
:1059400084819581820F931F0E941A2C0E949B2BA9
:1059500080E18A95F1F75A9852985A9A80E18A958F
:10596000F1F7F801E050FF4F6081662351F020917C
:10597000AF013091B00181819281820F931F0E940B
:10598000CD2B0E94932B0F90DF91CF91FF91EF9140
:10599000BF91AF919F918F917F916F915F914F9147
:1059A0003F912F911F910F910F900FBE0F901F905D
:1059B00018950F931F93CF93DF93EC010A970CF088
:1059C0004CC0F894529A5A9885E08A95F1F70000F5
:1059D0009C2F969595708C2F8570980F892F8370CA
:1059E0009695969523E0CC0FDD1F2A95E1F7980F49
:1059F0008E01092B0E949B2B00C068E0802F0E9423
:105A0000F92B80E18A95F1F752985A9A4A9B1EC069
:105A100087E090E04A991CC0FE01E050FF4F63818F
:105A20006623F9F02091AF013091B0018481958116
:105A3000820F931F0E94CD2B811113C0529A5A9A44
:105A40007894DF91CF911F910F91089500C0DECF20
:105A5000019729F4529A5A9A789480E0F2CF00C0C4
:105A6000D9CF0E94932B80E28A95F1F75A98529AE7
:105A700080E18A95F1F7C050DF4F6881662351F0CD
:105A80002091AF013091B00189819A81820F931FDB
:105A90000E941A2C0E949B2B789481E0D2CFAA1BE3
:105AA000BB1B51E107C0AA1FBB1FA617B70710F009
:105AB000A61BB70B881F991F5A95A9F7809590953B
:105AC000BC01CD0108952F923F924F925F926F9249
:105AD0007F928F929F92AF92BF92CF92DF92EF927E
